S013000068775F7761746368646F672E7372656382
S11300000AC019C083C017C016C016C014C013C0DC
S113001012C011C010C011271FBFCFE5D0E0DEBF52
S1130020CDBF20E0A0E4B0E001C01D93A235B2072B
S1130030E1F7F5D074C1E4CF1F930F930FB70F937B
S113004010E04F935F936F937F934DA1413019F16B
S1130050423039F540A351A34F5F5F4F51AB40ABE2
S113006042A153A1642F752F660F771F660F771F68
S1130070460F571F60A371A34617570790F440E536
S113008053EC60E070E048A959A96AA97BA91DA9AD
S113009011AB10AB06C042A153A14F5F5F4F53A9F0
S11300A042A94CA1413019F1423039F54EA15FA16A
S11300B04F5F5F4F5FA94EA940A151A1642F752FD7
S11300C0660F771F660F771F460F571F6EA17FA11C
S11300D04617570790F440E553EC60E070E044A9FC
S11300E055A966A977A91CA91FA91EA906C040A1E4
S11300F051A14F5F5F4F51A940A97F916F915F91CB
S11301004F910F910FBF0F911F9118951F930F934C
S11301100FB70F9310E04F935F93009B16C04DA150
S1130120413049F018F0423071F00FC013A912A900
S113013041E04DA90AC042A153A14536510728F018
S113014042E04DA902C011AB10AB019B16C04CA1FB
S1130150413049F018F0423071F00FC011A910A9D4
S113016041E04CA90AC040A151A14536510728F0ED
S113017042E04CA902C01FA91EA95F914F910F91A3
S11301800FBF0F911F911895662359F062B141E09A
S113019050E002C0440F551F8A95E2F7462B42B93E
S11301A0089562B141E050E002C0440F551F8A95A2
S11301B0E2F74095462342B9089541B1446041B9FC
S11301C041B1486041B941B14E7F41B941B14D7F20
S11301D041B942B1416042B942B1426042B960E0C2
S11301E082E0D2DF60E083E0CFDF08951EBD4DB52D
S11301F048604DBD4DB545604DBD17BD4EE446BD8F
S11302004BB542604BBD7894089542B3416042BB04
S113021040B3416040BB40B3426040BB089548EDE9
S11302204CBF16BFCADFE2DFF0DF48A159A16AA1C3
S11302307BA11417150716071707CCF448A159A179
S11302406AA17BA14035534C6107710719F461E041
S113025082E09ADF48A159A16AA17BA14150510BC8
S1130260610B710B48A959A96AA97BA917C048A1B8
S113027059A16AA17BA1452B462B472B79F460E059
S113028082E082DF48A159A16AA17BA14150510BB0
S1130290610B710B48A959A96AA97BA944A155A16D
S11302A066A177A11417150716071707CCF444A104
S11302B055A166A177A14035534C6107710719F424
S11302C061E083E061DF44A155A166A177A14150BB
S11302D0510B610B710B44A955A966A977A917C0E5
S11302E044A155A166A177A1452B462B472B79F450
S11302F060E083E049DF44A155A166A177A14150A4
S1130300510B610B710B44A955A966A977A947EC58
S113031050E041505040E9F700C0000086CFF89407
S1050320FFCF09
S9030000FC
