:100000000AC019C018C017C016C016C014C013C04B
:1000100012C011C010C011271FBFCFE5D0E0DEBF56
:10002000CDBF20E0A0E4B0E001C01D93AA34B20728
:10003000E1F769D0C5C0E4CF1F930F930FB70F93BB
:1000400010E04F935F936F9345A1442391F048A133
:1000500059A14F5F5F4F59A948A948A159A14938F3
:10006000534138F040E157E253A942A915A919A913
:1000700018A944A1442391F046A157A14F5F5F4FB7
:1000800057A946A946A157A14938534138F040E144
:1000900057E251A940A914A917A916A96F915F9118
:1000A0004F910F910FBF0F911F911895662359F033
:1000B00062B141E050E002C0440F551F8A95E2F75B
:1000C000462B42B9089562B141E050E002C0440FAE
:1000D000551F8A95E2F74095462342B908954CE0B2
:1000E00041B943E043B908951EBD4DB548604DBDCB
:1000F0004DB545604DBD17BD47E046BD4BB54260AF
:100100004BBD78940895EBDFEFDF40B145A141137B
:1001100002C041E045A919A918A9009907C044A146
:10012000411302C041E044A917A916A942A153A155
:10013000141715077CF442A153A14031574219F41A
:1001400061E082E0B3DF42A153A14150510B53A9BA
:1001500042A90DC042A153A1452B49F460E082E0C1
:10016000A5DF42A153A14150510B53A942A940A17F
:1001700051A1141715077CF440A151A140315742F9
:1001800019F461E083E092DF40A151A14150510B8D
:1001900051A940A90DC040A151A1452B49F460E0EF
:1001A00083E084DF40A151A14150510B51A940A9E6
:1001B00047EC50E041505040E9F700C00000A5CFA7
:0401C000F894FFCFE1
:00000001FF
